:0D008700C290C291C292C293C294C295224F
:0300DF00D2952295
:0300E200C29522A2
:0300E500D2902294
:0300E800C29022A1
:0900A000C294D293C292D29122C3
:0900A900D294C293D292C29122BA
:0900B200D294C293C292D29122B1
:0900BB00C294D293D292C29122A8
:0900C400D294D293D292D291227F
:0900CD0030B7037F01227F0022FD
:0900D60030B6037F01227F0022F5
:10006100E4FDFCC3ED9FEE6480F8EC6480985015CC
:10007100E4FAFB0BBB00010ABA03F8BBE8F50DBDBE
:0500810000010C80DE0F
:010086002257
:100003001200871200DF1200E520B3030200C412BE
:1000130000CDEF700B1200D6EF70051200A080E93F
:100023001200CDEF60171200D6EF60111200A97F06
:100033000A7E001200611200B27F0F801C1200CDF5
:10004300EF60091200BB7F0F7E00800D1200D6EF18
:0E00530060B71200B27F0F7E0012006180AB1A
:0300000002009467
:0C009400787FE4F6D8FD758107020003B8
:00000001FF
